{
  "_format": "hh-sol-artifact-1",
  "contractName": "Shipment",
  "sourceName": "contracts/shipment.sol",
  "abi": [
    {
      "inputs": [
        {
          "internalType": "string",
          "name": "_id",
          "type": "string"
        },
        {
          "internalType": "string",
          "name": "_location",
          "type": "string"
        }
      ],
      "name": "createShipment",
      "outputs": [],
      "stateMutability": "nonpayable",
      "type": "function"
    },
    {
      "inputs": [
        {
          "internalType": "string",
          "name": "_id",
          "type": "string"
        }
      ],
      "name": "getHistory",
      "outputs": [
        {
          "components": [
            {
              "internalType": "string",
              "name": "location",
              "type": "string"
            },
            {
              "internalType": "uint256",
              "name": "timestamp",
              "type": "uint256"
            }
          ],
          "internalType": "struct Shipment.Location[]",
          "name": "",
          "type": "tuple[]"
        }
      ],
      "stateMutability": "view",
      "type": "function"
    },
    {
      "inputs": [
        {
          "internalType": "string",
          "name": "",
          "type": "string"
        }
      ],
      "name": "shipments",
      "outputs": [
        {
          "internalType": "string",
          "name": "id",
          "type": "string"
        }
      ],
      "stateMutability": "view",
      "type": "function"
    },
    {
      "inputs": [
        {
          "internalType": "string",
          "name": "_id",
          "type": "string"
        },
        {
          "internalType": "string",
          "name": "_location",
          "type": "string"
        }
      ],
      "name": "updateLocation",
      "outputs": [],
      "stateMutability": "nonpayable",
      "type": "function"
    }
  ],
  "bytecode": "0x608060405234801561001057600080fd5b50610b89806100206000396000f3fe608060405234801561001057600080fd5b506004361061004c5760003560e01c80633def2b52146100515780635ceaef5b1461006d578063e360736e1461009d578063f6ddac74146100cd575b600080fd5b61006b6004803603810190610066919061053c565b6100e9565b005b610087600480360381019061008291906105b4565b610185565b604051610094919061067c565b60405180910390f35b6100b760048036038101906100b291906105b4565b610241565b6040516100c49190610800565b60405180910390f35b6100e760048036038101906100e2919061053c565b61035d565b005b600080836040516100fa919061085e565b908152602001604051809103902090508281600001908161011b9190610a81565b5080600101604051806040016040528084815260200142815250908060018154018082558091505060019003906000526020600020906002020160009091909190915060008201518160000190816101739190610a81565b50602082015181600101555050505050565b6000818051602081018201805184825260208301602085012081835280955050505050506000915090508060000180546101be906108a4565b80601f01602080910402602001604051908101604052809291908181526020018280546101ea906108a4565b80156102375780601f1061020c57610100808354040283529160200191610237565b820191906000526020600020905b81548152906001019060200180831161021a57829003601f168201915b5050505050905081565b6060600082604051610253919061085e565b9081526020016040518091039020600101805480602002602001604051908101604052809291908181526020016000905b8282101561035257838290600052602060002090600202016040518060400160405290816000820180546102b7906108a4565b80601f01602080910402602001604051908101604052809291908181526020018280546102e3906108a4565b80156103305780601f1061030557610100808354040283529160200191610330565b820191906000526020600020905b81548152906001019060200180831161031357829003601f168201915b5050505050815260200160018201548152505081526020019060010190610284565b505050509050919050565b60008260405161036d919061085e565b9081526020016040518091039020600101604051806040016040528083815260200142815250908060018154018082558091505060019003906000526020600020906002020160009091909190915060008201518160000190816103d19190610a81565b506020820151816001015550505050565b6000604051905090565b600080fd5b600080fd5b600080fd5b600080fd5b6000601f19601f8301169050919050565b7f4e487b7100000000000000000000000000000000000000000000000000000000600052604160045260246000fd5b61044982610400565b810181811067ffffffffffffffff8211171561046857610467610411565b5b80604052505050565b600061047b6103e2565b90506104878282610440565b919050565b600067ffffffffffffffff8211156104a7576104a6610411565b5b6104b082610400565b9050602081019050919050565b82818337600083830152505050565b60006104df6104da8461048c565b610471565b9050828152602081018484840111156104fb576104fa6103fb565b5b6105068482856104bd565b509392505050565b600082601f830112610523576105226103f6565b5b81356105338482602086016104cc565b91505092915050565b60008060408385031215610553576105526103ec565b5b600083013567ffffffffffffffff811115610571576105706103f1565b5b61057d8582860161050e565b925050602083013567ffffffffffffffff81111561059e5761059d6103f1565b5b6105aa8582860161050e565b9150509250929050565b6000602082840312156105ca576105c96103ec565b5b600082013567ffffffffffffffff8111156105e8576105e76103f1565b5b6105f48482850161050e565b91505092915050565b600081519050919050565b600082825260208201905092915050565b60005b8381101561063757808201518184015260208101905061061c565b60008484015250505050565b600061064e826105fd565b6106588185610608565b9350610668818560208601610619565b61067181610400565b840191505092915050565b600060208201905081810360008301526106968184610643565b905092915050565b600081519050919050565b600082825260208201905092915050565b6000819050602082019050919050565b600082825260208201905092915050565b60006106e6826105fd565b6106f081856106ca565b9350610700818560208601610619565b61070981610400565b840191505092915050565b6000819050919050565b61072781610714565b82525050565b6000604083016000830151848203600086015261074a82826106db565b915050602083015161075f602086018261071e565b508091505092915050565b6000610776838361072d565b905092915050565b6000602082019050919050565b60006107968261069e565b6107a081856106a9565b9350836020820285016107b2856106ba565b8060005b858110156107ee57848403895281516107cf858261076a565b94506107da8361077e565b925060208a019950506001810190506107b6565b50829750879550505050505092915050565b6000602082019050818103600083015261081a818461078b565b905092915050565b600081905092915050565b6000610838826105fd565b6108428185610822565b9350610852818560208601610619565b80840191505092915050565b600061086a828461082d565b915081905092915050565b7f4e487b7100000000000000000000000000000000000000000000000000000000600052602260045260246000fd5b600060028204905060018216806108bc57607f821691505b6020821081036108cf576108ce610875565b5b50919050565b60008190508160005260206000209050919050565b60006020601f8301049050919050565b600082821b905092915050565b6000600883026109377fffffffffffffffffffffffffffffffffffffffffffffffffffffffffffffffff826108fa565b61094186836108fa565b95508019841693508086168417925050509392505050565b6000819050919050565b600061097e61097961097484610714565b610959565b610714565b9050919050565b6000819050919050565b61099883610963565b6109ac6109a482610985565b848454610907565b825550505050565b600090565b6109c16109b4565b6109cc81848461098f565b505050565b5b818110156109f0576109e56000826109b9565b6001810190506109d2565b5050565b601f821115610a3557610a06816108d5565b610a0f846108ea565b81016020851015610a1e578190505b610a32610a2a856108ea565b8301826109d1565b50505b505050565b600082821c905092915050565b6000610a5860001984600802610a3a565b1980831691505092915050565b6000610a718383610a47565b9150826002028217905092915050565b610a8a826105fd565b67ffffffffffffffff811115610aa357610aa2610411565b5b610aad82546108a4565b610ab88282856109f4565b600060209050601f831160018114610aeb5760008415610ad9578287015190505b610ae38582610a65565b865550610b4b565b601f198416610af9866108d5565b60005b82811015610b2157848901518255600182019150602085019450602081019050610afc565b86831015610b3e5784890151610b3a601f891682610a47565b8355505b6001600288020188555050505b50505050505056fea264697066735822122031c7a9c5c7a0d8388800e746b1b95d6062014792907aec59f83bac751ac52eee64736f6c63430008140033",
  "linkReferences": {},
  "deployedLinkReferences": {}
}